:1000000012EF23F00000000000EF00F000000000FD
:0A0010000000000000000000F3D71C
:08001C000AAE029E000E120064
:100024000B840BAE1DEF00F0010E036E026A016A31
:0A003400006A0A360232FF0E1200C5
:0E003E00026A016A006A086A036A000E120074
:10004C000B820BAE30EF00F00368026801680068A9
:08005C000A360232FF0E120009
:10006400F250026EF29E0500FF6A0150FE6E0050CF
:08007400FD6E02BEF28E1200C7
:10007C00C7B409D01F0EC514016E0150000A03E16C
:0A008C00010E006E01D0006A1200A0
:100096000CB08DEF00F00CA233EF01F00E6A000EEB
:1000A6000264A4EF00F0F00E0214D8A46FEF00F083
:1000B600023A01380F0B02260138F00B016E0038A8
:1000C6000F0B01260038F00B006E08380F0B0026C8
:1000D6000838F00B086E0E84D89002BE88EF00F048
:1000E60008360036013602360E2A02BE88EF00F0C8
:1000F60008360036013602360E2A02BE88EF00F0B8
:1001060008360036013602360E2A0E50036429EFF1
:1001160001F0035E0BBC08AE2EEF01F0D880800E16
:1001260008640030000E002201220222D8A02EEF21
:1001360001F0023201320032034A33EF01F02EEFB2
:1001460001F001C002F000C001F008C000F0086A2A
:10015600000E0E860264DBEF00F0F00E0214D8A447
:10016600C3EF00F0023A01380F0B02260138F00BFC
:10017600016E00380F0B01260038F00B006E0E845E
:10018600D89002BE88EF00F00036013602360E2AFD
:1001960002BE88EF00F00036013602360E2A02BE95
:1001A60088EF00F00036013602360E2A88EF00F09E
:1001B60001C002F000C001F0006A000E0E960E8823
:1001C600026408EF01F0F00E0214D8A4F3EF00F079
:1001D600023A01380F0B02260138F00B016E0E842D
:1001E600D89002BE88EF00F0013602360E2A02BE13
:1001F60088EF00F0013602360E2A02BE88EF00F0C4
:10020600013602360E2A88EF00F001C002F0016ABC
:10021600000E0E86026438EF01F0F00E0214D8A428
:1002260017EF01F0023A0E84D89002BE88EF00F074
:1002360002360E2A02BE88EF00F002360E2A02BEF1
:1002460088EF00F002360E2A88EF00F0010E0C6EE1
:10025600E6DE3BEF01F0020E0C6EDDDE3BEF01F059
:10026600040E0C6EF0DE3BEF01F0080E0C6EE4DEC1
:02027600120074
:100278000134083609360450085E0550D8A0053CFC
:10028800095E003601360F0E0C6E01340836093649
:10029800045000A006D0085E0550D8A0053C095EB1
:1002A80005D008260550D8B0053C09260036013689
:1002B8000C2EEBD700B006D0045008260550D8B055
:0802C800053C092600001200AC
:1002D0009E96FBC0C9FF64C0FCF065C0FDF066C01F
:1002E000FEF067C0FFF0C7A421D000016451651182
:1002F000661167111AE0FC51FD11FE11FF110EE1AC
:1003000091C0E1FF92C0E2FF040EE66E8FC000F0E4
:1003100090C001F0A7DE010E006E3AD0010E000180
:10032000FC5F000EFD5BFE5BFF5BDDD764C0FCF095
:1003300065C0FDF066C0FEF067C0FFF09EB621D03C
:10034000000164516511661167111AE0FC51FD113D
:10035000FE11FF110EE191C0E1FF92C0E2FF040E19
:10036000E66E8FC000F090C001F07CDE010E006EE2
:100370000FD0010E0001FC5F000EFD5BFE5BFF5B1A
:10038000DDD7C5BC02D0006A03D0C584020E006E62
:02039000120059
:1003920064C001F165C002F166C003F167C004F1F7
:1003A2000001FB6BFC6BFC51120802E1FB518E0851
:1003B20008E363DE005201E004D00001FB4BFC2B9A
:1003C200F2D70001120EFC5D02E18F0EFB5D03E32A
:1003D2007B0E006E26D0C580C5A022D000016451DC
:1003E2006511661167111BE0010101510211031130
:1003F20004110EE191C0E1FF92C0E2FF050EE66E2C
:100402008FC000F090C001F02CDE010E006E09D00A
:10041200010E0101015F000E025B035B045BDCD78E
:04042200006A12005A
:100426000B800BAE1FEF02F0026A0AAEFF0E026EE1
:0C043600016E006E0A360232FF0E12004A
:10044200086A080E0C6E003408360450085ED8B0F4
:0E04520002D00826D89000360C2EF5D71200E6
:04046000C58412003D
:10046400086A096A000E07620364B7EF02F00250DB
:1004740006180A6E075003267E0ED8A048EF02F035
:10048400035ED8B0BBEF02F04CEF02F0035ED8A0DD
:10049400BFEF02F0028E068E02C00EF001C00BF018
:1004A40000C00DF000500402F4CF0CF0015005021E
:1004B400F4CF00F0F3CF08F00402F3500C26F4500C
:1004C4000822000E00220D500502F3500C26F450B1
:1004D4000822000E002202500402F3500826F450B1
:1004E400002202500502016A000E0122F350002688
:1004F400F45001220D500602F3500826F450002255
:10050400026A000E012202220B500602F35000265A
:10051400F4500122000E02220E500602F35001266E
:10052400F450022202BE9FEF02F008360036013674
:1005340002360306D8B4BFEF02F0B2EF02F0D8805F
:10054400800E08640030000E002201220222D8A08E
:10055400B2EF02F0023201320032034ABBEF02F082
:100564000AAE029E000EC1EF02F0010E66DDC1EF7D
:1005740002F0020E69DDC1EF02F0040E51DD12003B
:100584000D6A086A0050D8B4000C04180A6E0ABE3A
:100594000D1E0B6A04AE02D0041E042A00AE02D063
:1005A400001E002A005004100A6E0ABE1FD0045018
:1005B400085E003600340836045008260036060E5D
:1005C4000C6E00340836045000B0085E00A0082603
:1005D40000360C2EF6D700A008260BB015D00DAEB1
:1005E400000C001E002A081E082A000C04AE09D0C4
:1005F40000BE04D00050086E006AF1D7006A002AD9
:10060400000C001E0B2AD3D7082A0450085CD8A477
:0E061400E6D7086A002A00AEE2D7FF0C1200FB
:10062200929A809A0001FB530EE0170E0D6E0D2E6A
:10063200FED700000000808AFF0E0D6E0D2EFED741
:10064200000000000DD0EF0E0D6E0D2EFED7000043
:100652000000808A270E0D6E0D2EFED700000000CE
:02066200120084
:080664000B6A0B86FF0E120069
:10066C00025006180E6E086A096A0B6A035007647A
:10067C0029EF04F006500A6E068E028E03500B6EA4
:10068C000750036E000E0B6479EF03F00B50075EFE
:10069C00D8B41AEF04F0070E0764E8EF03F0075E16
:1006AC0000C008F001C000F002C001F0026A074E61
:1006BC001AEF04F00764BDEF03F0075E00C008F00A
:1006CC0001C000F0016A074E1AEF04F007649BEFBB
:1006DC0003F0075E00C008F0006A074E1AEF04F042
:1006EC00076482EF03F00AC002F005C001F004C0F9
:1006FC0000F0086A46EF05F0030E07648DEF03F077
:10070C00075E08380F0B086E074E1AEF04F0D890EE
:10071C000832074E1AEF04F0D8900832074E1AEF41
:10072C0004F0D89008321AEF04F0030E0764ACEF13
:10073C0003F0075E08380F0B086E0038F00B082624
:10074C0000380F0B006E074E1AEF04F0D8900032F1
:10075C000832074E1AEF04F0D89000320832074ED8
:10076C001AEF04F0D890003208321AEF04F0030E9E
:10077C000764D4EF03F0075E08380F0B086E0038DF
:10078C00F00B082600380F0B006E0138F00B00261A
:10079C0001380F0B016E074E1AEF04F0D89001329E
:1007AC0000320832074E1AEF04F0D89001320032B2
:1007BC000832074E1AEF04F0D8900132003208329A
:1007CC001AEF04F0030E076405EF04F0075E083817
:1007DC000F0B086E0038F00B082600380F0B006E5C
:1007EC000138F00B002601380F0B016E0238F00BAC
:1007FC00012602380F0B026E074E1AEF04F0D89048
:10080C000232013200320832074E1AEF04F0D8904F
:10081C000232013200320832074E1AEF04F0D8903F
:10082C000232013200320832096A000E0EAE0EEFAF
:10083C0005F0081E001E011E021E082A00220122BD
:10084C0002220EEF05F00750D8A42FEF04F046EF6C
:10085C0005F0096A02C00AF0028E068E0750035C8E
:10086C00076ED8B401EF05F0070E0764CFEF04F064
:10087C00075E0450096E0550046E0650056E066A3C
:10088C00074E01EF05F0070E0764A4EF04F0075EB6
:10089C000450096E0550046E056A074E01EF05F011
:1008AC00070E076482EF04F0075E0450096E046AB9
:1008BC00074E01EF05F0070E076469EF04F00AC05C
:1008CC0002F046EF05F0030E076474EF04F0075EC8
:1008DC0009380F0B096E074E01EF05F0D89009325D
:1008EC00074E01EF05F0D8900932074E01EF05F0E5
:1008FC00D890093201EF05F0030E076493EF04F072
:10090C00075E09380F0B096E0438F00B0926043802
:10091C000F0B046E074E01EF05F0D890043209322C
:10092C00074E01EF05F0D89004320932074E01EF63
:10093C0005F0D8900432093201EF05F0030E07647C
:10094C00BBEF04F0075E09380F0B096E0438F00B8F
:10095C00092604380F0B046E0538F00B04260538F5
:10096C000F0B056E074E01EF05F0D89005320432DF
:10097C000932074E01EF05F0D890053204320932E6
:10098C00074E01EF05F0D89005320432093201EF21
:10099C0005F0030E0764ECEF04F0075E09380F0B4B
:1009AC00096E0438F00B092604380F0B046E053859
:1009BC00F00B042605380F0B056E0638F00B0526D8
:1009CC0006380F0B066E074E01EF05F0D890063275
:1009DC00053204320932074E01EF05F0D890063289
:1009EC00053204320932074E01EF05F0D890063279
:1009FC00053204320932086A000E0EAE0EEF05F015
:100A0C00091E041E051E061E092A042205220622A2
:100A1C0009500826045000220550012206500222DB
:100A2C000EBE25EF05F0D8A034EF05F002320132EE
:100A3C0000320832033E34EF05F040EF05F0D8B039
:100A4C003AEF05F0000E081E001E011E021E082AB9
:100A5C000022012202220A7E3AEF05F0010E0C6EF2
:100A6C004BEC00F048EF05F0020E0C6E4BEC00F076
:100A7C0048EF05F0040E0C6E26EC00F048EF05F084
:060A8C00000E0C6E1200CA
:100A92000C6A0E6A0250D8A462EF05F001C002F09F
:100AA20000C001F0006A0E860250D8A462EF05F081
:100AB20001C002F0016A0E960E880250D8B474EF9B
:100AC20005F00E50035ED8A4D8A07AEF05F0D890B6
:100AD20002BE80EF05F0003601360236032E69EFC2
:100AE20005F07AEF05F0010E0C6E1FEC00F084EFBA
:100AF20005F0020E0C6E12EC00F084EF05F0040E0D
:080B02000C6E0EEC00F0120075
:100B0A000B6A0A6A096A086A0E6A033408360450CC
:100B1A00085E0550D8A0053C095E0650D8A0063CE0
:100B2A000A5E0750D8A0073C0B5EE86AD8A0010EFF
:100B3A000E5E0336070E0C6E0334083609360A3683
:100B4A000B360E36045003A012D0085E0550D8A00A
:100B5A00053C095E0650D8A0063C0A5E0750D8A09C
:100B6A00073C0B5EE86AD8A0010E0E5E11D008267B
:100B7A000550D8B0053C09260650D8B0063C0A26CE
:100B8A000750D8B0073C0B26E86AD8B0010E0E26EB
:100B9A0003360C2ED1D70234083609360A360B36FC
:100BAA000E36045003A012D0085E0550D8A0053CAA
:100BBA00095E0650D8A0063C0A5E0750D8A0073C3A
:100BCA000B5EE86AD8A0010E0E5E11D00826055009
:100BDA00D8B0053C09260650D8B0063C0A2607506C
:100BEA00D8B0073C0B26E86AD8B0010E0E260236AA
:100BFA00070E0C6E0234083609360A360B360E36E4
:100C0A00045002A012D0085E0550D8A0053C095E27
:100C1A000650D8A0063C0A5E0750D8A0073C0B5ED7
:100C2A00E86AD8A0010E0E5E11D008260550D8B089
:100C3A00053C09260650D8B0063C0A260750D8B00B
:100C4A00073C0B26E86AD8B0010E0E2602360C2E97
:100C5A00D1D70134083609360A360B360E36045017
:100C6A0002A012D0085E0550D8A0053C095E0650C5
:100C7A00D8A0063C0A5E0750D8A0073C0B5EE86A7B
:100C8A00D8A0010E0E5E11D008260550D8B0053C3A
:100C9A0009260650D8B0063C0A260750D8B0073CA9
:100CAA000B26E86AD8B0010E0E260136070E0C6E26
:100CBA000134083609360A360B360E36045001A0BE
:100CCA0012D0085E0550D8A0053C095E0650D8A08F
:100CDA00063C0A5E0750D8A0073C0B5EE86AD8A01B
:100CEA00010E0E5E11D008260550D8B0053C092623
:100CFA000650D8B0063C0A260750D8B0073C0B2647
:100D0A00E86AD8B0010E0E2601360C2ED1D700346F
:100D1A00083609360A360B360E36045001A012D0B0
:100D2A00085E0550D8A0053C095E0650D8A0063CCE
:100D3A000A5E0750D8A0073C0B5EE86AD8A0010EED
:100D4A000E5E11D008260550D8B0053C092606507B
:100D5A00D8B0063C0A260750D8B0073C0B26E86AEA
:100D6A00D8B0010E0E260036070E0C6E0034083677
:100D7A0009360A360B360E36045000A012D0085E29
:100D8A000550D8A0053C095E0650D8A0063C0A5E6C
:100D9A000750D8A0073C0B5EE86AD8A0010E0E5E89
:100DAA0011D008260550D8B0053C09260650D8B0FF
:100DBA00063C0A260750D8B0073C0B26E86AD8B08A
:100DCA00010E0E2600360C2ED1D700B00ED00450DC
:100DDA0008260550D8B0053C09260650D8B0063C6E
:0C0DEA000A260750D8B0073C0B26120068
:100DF6006E0E0001F65DD8A0CAD0640E046EF6C071
:100E060000F021EC02F0120E0024056E066A000EB8
:100E1600062205C000F006C001F0000E06BEFF0E59
:100E2600026E036E00360090013602360336003637
:100E360000900136023603366F0E0024F66E480E19
:100E46000120F76E000E0220F86E0900F5CF00F0C3
:100E56000900F5CF01F00900F5CF02F00900F5CF42
:100E660003F0000E046E000E056E000E066E7E0E7A
:100E7600076E32EC02F000C0F7F001C0F8F002C0D5
:100E8600F9F003C0FAF0640E046EF6C000F021EC2F
:100E960002F008C000F00A0E046E21EC02F0090E02
:100EA6000024056E066A000E062205C000F006C084
:100EB60001F0000E06BEFF0E026E036E00360090B5
:100EC6000136023603360036009001360236033606
:100ED6006F0E0024F66E480E0120F76E000E0220FB
:100EE600F86E0900F5CF00F00900F5CF01F0090012
:100EF600F5CF02F00900F5CF03F0F7C004F0F8C013
:100F060005F0F9C006F0FAC007F032EC02F000C0B6
:100F1600F7F001C0F8F002C0F9F003C0FAF00A0ECB
:100F2600046EF6C000F021EC02F008C000F000C02C
:100F360001F0000E026E036E046E01360190023659
:100F460003360436013601900236033604366F0E38
:100F56000124F66E480E0220F76E000E0320F86E8E
:100F66000900F5CF00F00900F5CF01F00900F5CF33
:100F760002F00900F5CF03F0F7C004F0F8C005F061
:100F8600F9C006F0FAC007F032EC02F0B1D0F65123
:100F96000A08D8B07ED00A0E046EF6C000F021EC26
:100FA60002F0090E0024056E066A000E062205C030
:100FB60000F006C001F0000E06BEFF0E026E036EC4
:100FC60000360090013602360336003600900136B0
:100FD600023603366F0E0024F66E480E0120F76EB9
:100FE600000E0220F86E0900F5CF00F00900F5CFDB
:100FF60001F00900F5CF02F00900F5CF03F0000E6D
:10100600046E000E056E000E066E7E0E076E32EC46
:1010160002F000C0F7F001C0F8F002C0F9F003C01A
:10102600FAF00A0E046EF6C000F021EC02F008C0D9
:1010360000F000C001F0000E026E036E046E013671
:101046000190023603360436013601900236033625
:1010560004366F0E0124F66E480E0220F76E000E5F
:101066000320F86E0900F5CF00F00900F5CF01F076
:101076000900F5CF02F00900F5CF03F0F7C004F040
:10108600F8C005F0F9C006F0FAC007F032EC02F03D
:101096002FD0F6C000F0000E016E026E036E003611
:1010A60000900136023603360036009001360236CD
:1010B60003366F0E0024F66E480E0120F76E000E02
:1010C6000220F86E0900F5CF00F00900F5CF01F017
:1010D6000900F5CF02F00900F5CF03F0000E046E0B
:1010E600000E056E000E066E7E0E076E32EC02F0E6
:0210F6001200E6
:1010F800929A809A080E0C6E790E0D6E0D2EFED700
:101108000C2EFCD700000000928A020E0C6E150E01
:101118000D6E0D2EFED70C2EFCD700000000000E21
:1011280080BA010E016E070E0C6E620E0D6E0D2E4A
:10113800FED70C2EFCD700000152010ED8A4000ED9
:04114800006E120023
:10114C000001F96BF00EF615F76FF6C0F8F0F837F2
:10115C00F891F837F891F837F891F837F891F00ED4
:10116C00F817C9EC01F03EEC00F04E0E0001FB6FDD
:10117C0068EC01F03EEC00F00001F951F711FB6F47
:10118C00FB85FB8768EC01F03EEC00F0C70E0D6EA2
:10119C000D2EFED7000000000001F951F711FB6F76
:1011AC00FB8768EC01F03EEC00F0020E0C6E8D0E2D
:1011BC000D6E0D2EFED70C2EFCD70000000000018A
:1011CC00F951F811FB6FFB85FB8768EC01F03EECE5
:1011DC0000F0C70E0D6E0D2EFED7000000000001B2
:1011EC00F951F811FB6FFB8768EC01F03EEC00F055
:1011FC0030EC02F00001F651010A0AE1200E0C6EEF
:10120C00290E0D6E0D2EFED70C2EFCD70000000003
:02121C001200BE
:10121E000001F76B080EF75D09E2010EF615FB6F84
:0E122E0011EC03F0F633F69FF72BF4D7120005
:10123C000050086E0150006E0250016E0350026E99
:10124C00036A0B6A0C6A9E0E036E0A6A020E0C6E1F
:06125C004BEC00F0120053
:10126200929A809A170E0D6E0D2EFED70000000086
:10127200928A230E0D6E0D2EFED700000000000E86
:1012820080BA010E016EDB0E0D6E0D2EFED7000030
:08129200000001C000F0120091
:10129A000B6A0C6A0A6A086A0350D8B4D5EF09F0D7
:1012AA00028E9E0E035E03BE60EF09F0D8B460EFB3
:1012BA0009F0C5EF09F0036C080E035CD8A092EFA1
:1012CA0009F0036E083600C008F001C000F002C041
:1012DA0001F0026A080E035CD8A092EF09F0036ECF
:1012EA00083600C008F001C000F0016A080E035C6D
:1012FA00D8A092EF09F0036E083600C008F0006A21
:10130A00080E035CD8A092EF09F0036E0836086A4B
:10131A000350D8A4D8909EEF09F00350D8B49EEF9A
:10132A0009F0D8900232013200320832032E96EFC9
:10133A0009F00BBC08A0AFEF09F0D8A0AFEF09F095
:10134A00082AD8B4002AD8B4012AD8B4022A02BE7C
:10135A00D9EF09F00AAED5EF09F0021E011E001EF0
:10136A00081E082AD8B4002AD8B4012AD8B4022AF6
:10137A00D5EF09F0026A016A006A086AD5EF09F036
:10138A000B800BAEDFEF09F0026A0AAEDFEF09F05D
:10139A00026E016E006E086E0A360232DFEF09F045
:1013AA00000E0C6AE0EF09F0010E0C6E13EC02F06D
:1013BA00E0EF09F0FF0E0250036E0150026E00507A
:0813CA00016E0850006E1200D4
:1013D2000450000A08E10550000A05E1FF0E006E04
:1013E2007F0E016E58D00D6A096A086A015000101A
:1013F200D8B4000C015005180A6E0ABE0D1E0B6A05
:1014020005AE05D0041E051E042AD8B4052A01AE75
:1014120005D0001E011E002AD8B4012A0150051071
:101422000A6E0ABE10D03CEC01F00BB020D00DAE1B
:10143200000C001E011E002AD8B4012A081E091E33
:10144200082AD8B4092A000C05AE0DD001BE07D077
:101452000150096E0050086E016A006AE8D7016AFD
:10146200006A002A000C011E001E0B2ADDD7082A82
:10147200D8B4092A0450085CD8A4D9D70550095C0D
:10148200D8A4D5D7096A086A002AD8B4012A01AEBD
:08149200CED70000FF0C120090
:08149A00067E36EC03F012009F
:1014A2000450000A12E10550000A0FE10650000A3A
:1014B2000CE10750000A09E1FF0E006EFF0E016EFB
:1014C2007F0E026EFF0E036EA8D0086A096A0750EB
:1014D200D8B4FCEF0AF00350D8B401EF0BF002507D
:1014E20006180A6E028E068E0E6A02C008F001C04D
:1014F2000CF000C00DF004500D5E0550D8A0053C64
:101502000C5E0650D8A0063C085E086A0C6A0D6A9A
:10151200D8A093EF0AF0D89002320132003208329A
:10152200010E0E6E0750035ED8A0A0EF0AF07E0EE9
:101532000E240326D8B006EF0BF0A6EF0AF07E0EBB
:101542000E240326D8A00BEF0BF0180E0B6E0D36EF
:101552000C3608360036013602360E360450005E6E
:101562000550D8A0053C015E0650D8A0063C025E9C
:1015720006340E120EA0C1EF0AF00D80CCEF0AF075
:10158200045000260550D8B0053C01260650D8B0BC
:10159200062802260D900B2EA8EF0AF0F2EF0AF0B1
:1015A200D8900036013602360E360450005E0550E1
:1015B200D8A0053C015E0650D8A0063C025E063467
:1015C2000E10010B0D26D8B00C2AD8B4082AD8A4C4
:1015D200F2EF0AF008320C320D32032AD8B406EFC9
:1015E2000BF00AAE089E0850026E0C50016E0D50B0
:1015F200006E0EEF0BF0010E32EC03F00EEF0BF06B
:10160200020E1FEC00F00EEF0BF0040E26EC00F0C1
:0C1612000EEF0BF0080E12EC00F01200BE
:10161E00800E0001F619006E800E000A005CD8B034
:10162E006DD1F6510008016E01C0F6F0800E011862
:10163E00006E800E6E0A005CD8A0C0D0640E046EE0
:10164E00F6C000F0C2EC02F0120E0024056E000E81
:10165E0000BEFF0E066E000E062205C000F006C08C
:10166E0001F0000E06BEFF0E026E036E00360090F5
:10167E000136023603360036009001360236033646
:10168E006F0E0024F66E480E0120F76E000E02203B
:10169E00F86E0900F5CFF7F00900F5CFF8F0090064
:1016AE00F5CFF9F00900F5CFFAF0640E046EF6C02E
:1016BE0000F0C2EC02F008C000F00A0E046EC2EC9C
:1016CE0002F0090E0024056E000E00BEFF0E066E1F
:1016DE00000E062205C000F006C001F0000E06BE88
:1016EE00FF0E026E036E0036009001360236033690
:1016FE00003600900136023603366F0E0024F66E69
:10170E00480E0120F76E000E0220F86E0900F5CF8C
:10171E0000F00900F5CF01F00900F5CF02F0090045
:10172E00F5CF03F0F7C004F0F8C005F0F9C006F0ED
:10173E00FAC007F032EC02F000C0F7F001C0F8F08A
:10174E0002C0F9F003C0FAF00A0E046EF6C000F003
:10175E00C2EC02F008C000F000C001F0000E00BEA6
:10176E00FF0E026E036E046E0136019002360336D2
:10177E000436013601900236033604366F0E01240C
:10178E00F66E480E0220F76E000E0320F86E09006A
:10179E00F5CF00F00900F5CF01F00900F5CF02F00A
:1017AE000900F5CF03F0F7C004F0F8C005F0F9C05A
:1017BE0006F0FAC007F032EC02F007D2800E0A0AE9
:1017CE00006E800EF619005C71E20A0E046EF6C011
:1017DE0000F0C2EC02F0090E0024056E000E00BEF1
:1017EE00FF0E066E000E062205C000F006C001F0C8
:1017FE00000E06BEFF0E026E036E0036009001361E
:10180E0002360336003600900136023603366F0E6E
:10181E000024F66E480E0120F76E000E0220F86EC0
:10182E000900F5CFF7F00900F5CFF8F00900F5CF74
:10183E00F9F00900F5CFFAF00A0E046EF6C000F0CA
:10184E00C2EC02F008C000F000C001F0000E00BEB5
:10185E00FF0E026E036E046E0136019002360336E1
:10186E000436013601900236033604366F0E01241B
:10187E00F66E480E0220F76E000E0320F86E090079
:10188E00F5CF00F00900F5CF01F00900F5CF02F019
:10189E000900F5CF03F0F7C004F0F8C005F0F9C069
:1018AE0006F0FAC007F032EC02F08FD1F6C000F06D
:1018BE00000EF6BFFF0E016E026E036E0036009034
:1018CE0001360236033600360090013602360336F4
:1018DE006F0E0024F66E480E0120F76E000E0220E9
:1018EE00F86E0900F5CF00F00900F5CF01F0090000
:1018FE00F5CF02F00900F5CF03F067D1800EF6198F
:10190E00006E800E6E0A005CD8A0C0D0640E046E0D
:10191E00F6C000F0C2EC02F0120E0024056E000EAE
:10192E0000BEFF0E066E000E062205C000F006C0B9
:10193E0001F0000E06BEFF0E026E036E0036009022
:10194E000136023603360036009001360236033673
:10195E00A30E0024F66E480E0120F76E000E022034
:10196E00F86E0900F5CFF7F00900F5CFF8F0090091
:10197E00F5CFF9F00900F5CFFAF0640E046EF6C05B
:10198E0000F0C2EC02F008C000F00A0E046EC2ECC9
:10199E0002F0090E0024056E000E00BEFF0E066E4C
:1019AE00000E062205C000F006C001F0000E06BEB5
:1019BE00FF0E026E036E00360090013602360336BD
:1019CE0000360090013602360336A30E0024F66E62
:1019DE00480E0120F76E000E0220F86E0900F5CFBA
:1019EE0000F00900F5CF01F00900F5CF02F0090073
:1019FE00F5CF03F0F7C004F0F8C005F0F9C006F01B
:101A0E00FAC007F032EC02F000C0F7F001C0F8F0B7
:101A1E0002C0F9F003C0FAF00A0E046EF6C000F030
:101A2E00C2EC02F008C000F000C001F0000E00BED3
:101A3E00FF0E026E036E046E0136019002360336FF
:101A4E00043601360190023603360436A30E012405
:101A5E00F66E480E0220F76E000E0320F86E090097
:101A6E00F5CF00F00900F5CF01F00900F5CF02F037
:101A7E000900F5CF03F0F7C004F0F8C005F0F9C087
:101A8E0006F0FAC007F032EC02F09FD0800E0A0A80
:101A9E00006E800EF619005C71E20A0E046EF6C03E
:101AAE0000F0C2EC02F0090E0024056E000E00BE1E
:101ABE00FF0E066E000E062205C000F006C001F0F5
:101ACE00000E06BEFF0E026E036E0036009001364B
:101ADE000236033600360090013602360336A30E68
:101AEE000024F66E480E0120F76E000E0220F86EEE
:101AFE000900F5CFF7F00900F5CFF8F00900F5CFA2
:101B0E00F9F00900F5CFFAF00A0E046EF6C000F0F7
:101B1E00C2EC02F008C000F000C001F0000E00BEE2
:101B2E00FF0E026E036E046E01360190023603360E
:101B3E00043601360190023603360436A30E012414
:101B4E00F66E480E0220F76E000E0320F86E0900A6
:101B5E00F5CF00F00900F5CF01F00900F5CF02F046
:101B6E000900F5CF03F0F7C004F0F8C005F0F9C096
:101B7E0006F0FAC007F032EC02F027D0F6C000F003
:101B8E00000EF6BFFF0E016E026E036E0036009061
:101B9E000136023603360036009001360236033621
:101BAE00A30E0024F66E480E0120F76E000E0220E2
:101BBE00F86E0900F5CF00F00900F5CF01F009002D
:0C1BCE00F5CF02F00900F5CF03F0120083
:101BDA000B6A0A6A096A00500402F4CF09F0F3CFCB
:101BEA0008F001500502F4CF0BF0F3CF0AF00050D1
:101BFA000502F3500926F4500A22E86A0B22015022
:101C0A000402F3500926F4500A22E86A0B2208C09B
:101C1A0000F009C001F00AC002F00BC003F0120084
:101C2A000B6A0C6A086A0350D8B499EF0EF002C026
:101C3A000AF0028E9E0E035E03AE89EF0EF0036C6D
:101C4A00080E035CD8A056EF0EF0036E083600C0EB
:101C5A0008F001C000F002C001F0026A080E035C3D
:101C6A00D8A056EF0EF0036E083600C008F001C087
:101C7A0000F0016A080E035CD8A056EF0EF0036E5E
:101C8A00083600C008F0006A080E035CD8A056EFB8
:101C9A000EF0036E0836086A0350D8A4D89062EF93
:101CAA000EF00350D8B462EF0EF0D890023201322F
:101CBA0000320832032E5AEF0EF00BBC08A073EF65
:101CCA000EF0D8A073EF0EF0082AD8B4002AD8B4C0
:101CDA00012AD8B4022A02BE9DEF0EF00AAE99EF8D
:101CEA000EF0021E011E001E081E082AD8B4002A81
:101CFA00D8B4012AD8B4022A99EF0EF0026A016A0E
:101D0A00006A086A99EF0EF00B800BAEA4EF0EF092
:101D1A00026A0AAEA4EF0EF0026E016E006E086E41
:101D2A000A360232A4EF0EF00C6A000EA5EF0EF08E
:101D3A00010E0C6E000E13EC02F0A5EF0EF0FF0E72
:101D4A000250036E0150026E0050016E0850006E80
:021D5A00120075
:101D5C000A6A0350D8A40A800750D8A40A820A50F1
:101D6C00D8B411EF0FF0030AD8B4CAEF0EF00AB0D2
:101D7C00C5EF0EF006AE0FEF0FF00DEF0FF002AE49
:101D8C000DEF0FF00FEF0FF00250800B0A6E029E5A
:101D9C000650800B069E0A18D8B4DBEF0EF00A50E2
:101DAC00D8B40DEF0FF00FEF0FF00750035CD8B461
:101DBC00E5EF0EF0D8A001EF0FF007EF0FF0065093
:101DCC00025CD8B4EFEF0EF0D8A001EF0FF007EFE4
:101DDC000FF00550015CD8B4F9EF0EF0D8A001EF6C
:101DEC000FF007EF0FF00450005CD8B411EF0FF0B8
:101DFC00D8B007EF0FF00A52D8B40FEF0FF00DEF79
:101E0C000FF00A52D8B40DEF0FF00FEF0FF0D8808F
:0E1E1C001200D8901200D880D8841200120054
:101E2A000001F651390806E3300EF65D03E3010EB0
:081E3A00006E01D0006A1200E5
:101E420003500718D8A435EF0FF002500618D8A493
:101E520035EF0FF001500518D8A435EF0FF0005000
:0E1E62000418D8B4D8841200D89412001200CC
:101E70000001CF6BCE6B080ECE5D09E2CF33CF9F52
:101E800031EC09F00052D8A4CF8FCE2BF4D7CFC0BD
:041E900000F012004C
:101E94000050086E0150006E016A026A036A0B6A00
:101EA4000C6A960E036E0A6A00C001F008C000F0C6
:0A1EB400086A026A49EC05F012000A
:101EBE000001D56B010ECF6FD06BD16B010ED46FBD
:101ECE006953D8A496D07CEC08F0005205E16A6BF9
:101EDE00696B686B006A98D0F00EF66F0FEC09F024
:101EEE0031EC09F000C0D2F031EC09F000C0D3F0B3
:101EFE00D251010A04E1D351010A01E16ED0D2514F
:101F0E00D31903E0D2C0CEF025D06A51CF5D12E2D4
:101F1E00730EE96E000EEA6ED151E926D8B0EA2AA8
:101F2E00D451EE14CE6FCE510008010ED8B0000E73
:101F3E00CE6F06D0CF516A19010ED8A4000ECE6F07
:101F4E00CE51000A07E1CFC0D0F0090ECF5D02E2FC
:101F5E00D0C068F0CE51010A16E1730E016E000E6C
:101F6E00026ED1510126D8B0022A01C0E9FF02C08B
:101F7E00EAFFD451EE10006E01C0E1FF02C0E2FF95
:101F8E0000C0E6FF16D0730E016E000E026ED15128
:101F9E000126D8B0022AD41D006E01C0E9FF02C08E
:101FAE00EAFFEE50001601C0E1FF02C0E2FF00C0E2
:101FBE00E6FFCEC0FBF011EC03F0CF2BD4C001F046
:101FCE000136019001C0D4F00150000A03E1D12B7B
:101FDE00010ED46F080ED15D83E3410ECF5D09E390
:101FEE00D0C06AF0D051000A02E1010E696F010EF5
:101FFE00D56FD55303E0735301E004D06A6B696B60
:0A200E00686BD56BD5C000F012001E
:102018000001EE6BEF6BE26BE36BD0C000F0D1C058
:1020280001F0D2C002F0010ED027000ED123D22336
:1020380000C0F6FF01C0F7FF02C0F8FF0900F5CFA6
:1020480000F000C0DFF00052D8B415EF20F0DF51E7
:10205800250A0BE0CEC0E1FFCFC0E2FFDFC0E6FFFC
:10206800CE4BCF2BEE4BEF2BD8D7E06BE16BE26B6F
:10207800E36B23D0E287010ED027000ED123D223B1
:1020880059D0E281010ED027000ED123D22352D09D
:10209800E283010ED027000ED123D2234BD0E38751
:1020A800010ED027000ED123D22344D0E285010EA1
:1020B800D027000ED123D2233DD0D0C0F6FFD1C007
:1020C800F7FFD2C0F8FF0900F5CF01F001502D0A43
:1020D800D1E0D0C0F6FFD1C0F7FFD2C0F8FF0900A9
:1020E800F5CF01F00150200ACCE0D0C0F6FFD1C0F6
:1020F800F7FFD2C0F8FF0900F5CF01F001502B0A15
:10210800C7E0D0C0F6FFD1C0F7FFD2C0F8FF090082
:10211800F5CF01F00150230AC2E0D0C0F6FFD1C0CC
:10212800F7FFD2C0F8FF0900F5CF01F00150300ADF
:10213800BDE001D09ED7E2A301D0E291E2A701D091
:10214800E295D0C0F6FFD1C0F7FFD2C0F8FF090072
:10215800F5CF00F0000E016E00C0F6F062DE00520E
:1021680034E0E06BE16BE0C000F0E1C001F00A0E82
:10217800046E000E056E2DDDD0C0F6FFD1C0F7FF4E
:10218800D2C0F8FF0900F5CF02F002500024E06F3A
:10219800000E0120E16F300EE05F000EE15B010EE2
:1021A800D027000ED123D223D0C0F6FFD1C0F7FF2D
:1021B800D2C0F8FF0900F5CF00F0000E016E00C094
:1021C800F6F02FDE0052CFE133D0D0C0F6FFD1C0F9
:1021D800F7FFD2C0F8FF0900F5CF01F001502A0A35
:1021E80027E1D3C0E9FFD4C0EAFFEECF00F0EECF7D
:1021F80001F000C0E9FF01C0EAFFEECFE0F0EECF4A
:10220800E1F0D3C0E9FFD4C0EAFF020EEE24006E6D
:10221800000EEE20016ED3C0E1FFD4C0E2FF00C083
:10222800E6FF01C0E6FF010ED027000ED123D2231E
:10223800D0C0F6FFD1C0F7FFD2C0F8FF0900F5CF34
:1022480001F001502E0A6EE1010ED027000ED123B5
:10225800D223D0C0F6FFD1C0F7FFD2C0F8FF0900E3
:10226800F5CF01F001502A0A28E1D3C0E9FFD4C014
:10227800EAFFEECF00F0EECF01F000C0E9FF01C0A9
:10228800EAFFEECFDDF0EECFDEF0D3C0E9FFD4C039
:10229800EAFF020EEE24006E000EEE20016ED3C09F
:1022A800E1FFD4C0E2FF00C0E6FF01C0E6FF010E77
:1022B800D027000ED123D22334D0DD6BDE6BD0C003
:1022C800F6FFD1C0F7FFD2C0F8FF0900F5CF00F044
:1022D800000E016E00C0F6F0A4DD005222E0DDC061
:1022E80000F0DEC001F00A0E046E000E056E71DC0F
:1022F800D0C0F6FFD1C0F7FFD2C0F8FF0900F5CF74
:1023080002F002500024DD6F000E0120DE6F300E57
:10231800DD5F000EDE5B010ED027000ED123D22335
:10232800CED703D0DD6BDE6BE389D0C000F0D1C01F
:1023380001F0D2C002F0010ED027000ED123D22323
:1023480000C0F6FF01C0F7FF02C0F8FF0900F5CF93
:10235800DFF0F9D0EEC000F0EFC001F019EF20F087
:10236800E289E3D7E3852ED1E28BE3812BD1E383A6
:1023780029D1E28D27D126D1E28BE28F23D1D3C098
:10238800E9FFD4C0EAFFEECF00F0EECF01F000C0C5
:10239800E9FF01C0EAFFEECFEAF0EECFEBF0D3C0E1
:1023A800E9FFD4C0EAFF020EEE24006E000EEE2014
:1023B800016ED3C0E1FFD4C0E2FF00C0E6FF01C058
:1023C800E6FF000EEB1902E1000EEA1904E15D0ECA
:1023D800EA6F000EEB6FEC6BED6BEC51EA25E96EE2
:1023E800ED51EB21EA6EEE520BE0010EEC25006E8A
:1023F800000EED21016E00C0ECF001C0EDF0EDD74C
:10240800DD51DE110AE0ED51DE5D02E1EC51DD5DEA
:1024180004E2DDC0ECF0DEC0EDF0E151ED5D02E17B
:10242800E051EC5D05E2EC51E05FED51E15B02D07B
:10243800E06BE16BE2B716D0E0C000F0E1C001F05C
:10244800010EE05F000EE15B005001100BE0CEC012
:10245800E1FFCFC0E2FF200EE66ECE4BCF2BEE4B56
:10246800EF2BEAD7ECC002F0EDC003F0010EEC5DF3
:10247800006E000EED59016E00C0ECF001C0EDF0E9
:102488000250031019E0EAC0E9FFEBC0EAFFCEC032
:10249800E1FFCFC0E2FFEECFE6FFCE4BCF2B010E20
:1024A800EA25006E000EEB21016E00C0EAF001C0C3
:1024B800EBF0EE4BEF2BD6D7E2A716D0E0C000F03A
:1024C800E1C001F0010EE05F000EE15B0050011079
:1024D8000BE0CEC0E1FFCFC0E2FF200EE66ECE4B90
:1024E800CF2BEE4BEF2BEAD798D5D3C0E9FFD4C05A
:1024F800EAFFEECF00F0EECF01F000C0E9FF01C027
:10250800EAFFEECFDFF0D3C0E9FFD4C0EAFF020E46
:10251800EE24006E000EEE20016ED3C0E1FFD4C0A1
:10252800E2FF00C0E6FF01C0E6FFDF0EEA6F000E23
:10253800EB6F010EEC6F000EED6F62D7C00EE21369
:10254800000EE3133FD0DF51000AD8B403D7DF51A0
:102558006C0AD8B405D7DF514C0AD8B401D7DF517B
:10256800660AD8B4FFD6DF51450AD8B4FDD6DF5184
:10257800650AD8B4FAD6DF51670AD8B4F8D6DF515D
:102588006F0AD8B4F6D6DF51640AD8B4F4D6DF514E
:10259800690AD8B4F0D6DF51700AD8B4EDD6DF5145
:1025A800580AD8B4E9D6DF51780AD8B4E6D6DF514C
:1025B800730AD8B4E4D6DF51630A97E0DF51750A8D
:1025C800BDE0B3D7000EE215006EE351070B016EB4
:1025D80000500110D8B4BCEF1BF0E3A904D0060EDC
:1025E800DD6F000EDE6FD3C0E9FFD4C0EAFFEECF87
:1025F80000F0EECF01F000C0E9FF01C0EAFFEECF26
:10260800E4F0EECFE5F0EECFE6F0EECFE7F0D3C0A2
:10261800E9FFD4C0EAFF040EEE24006E000EEE209F
:10262800016ED3C0E1FFD4C0E2FF00C0E6FF01C0E5
:10263800E6FF046A056A066A076AE4C000F0E5C0B6
:1026480001F0E6C002F0E7C003F0AEEC0EF0010EB8
:10265800D8B0000E006E005205E0E67F030EE213CC
:10266800000EE313E86BE96BE4C000F0E5C001F08D
:10267800E6C002F0E7C003F0046A056A066A076A62
:1026880021EC0FF0000ED8A4010E006E0052D8B451
:102698008AD0E7C000F0016A026A036AFF0E0016DA
:1026A800000E01167E0E005E000E015A00C0E8F012
:1026B80001C0E9F0010E005E000E015A00C0E8F00A
:1026C80001C0E9F0030E046E000E056EEDEC0DF08E
:1026D80000C0E8F001C0E9F00A0E046E000E056EB5
:1026E800E9EC09F000C0E8F001C0E9F0800E01183B
:1026F800026E800E025C02E1000E005C05E2010E33
:102708000001E85F000EE95B0001E8510008F66F80
:102718000FEC0BF0E4C004F0E5C005F0E6C006F0ED
:10272800E7C007F032EC02F000C0EAF001C0EBF0BD
:1027380002C0ECF003C0EDF0000E046E000E056E52
:10274800000E066E7F0E076EEAC000F0EBC001F0C7
:10275800ECC002F0EDC003F0AEEC0EF0010ED8B004
:10276800000E006E005205E0010EE85F000EE95B06
:102778001AD0000E046E000E056E200E066E820E34
:10278800076EEAC000F0EBC001F0ECC002F0EDC04B
:1027980003F0AEEC0EF0000ED8B0010E006E005241
:1027A80002E0E84BE92B800E006E800EE919005C10
:1027B80002E1E851000803E3010EDF6F02D0E8C030
:1027C800DFF0E3B118D0E3A315D0800EE919006E4D
:1027D8007F0E005C02E1FC0EE85D0BE3800EE91958
:1027E800006E800EDE19005C02E1DD51E85D01E259
:1027F80001D001D0EFD3DD51DE1106E0E3A304D010
:10280800010EDD5F000EDE5BDE51000802E1DD51E6
:10281800080803E2080EDF6F02D0DDC0DFF0E4C075
:1028280000F0E5C001F0E6C002F0E7C003F0046A7A
:10283800056A066A076A21EC0FF0000ED8A4010E9B
:10284800006E0052D8B44BD1E8C0F6F00FEC0BF094
:1028580000C004F001C005F002C006F003C007F094
:10286800E4C000F0E5C001F0E6C002F0E7C003F004
:1028780051EC0AF000C0E4F001C0E5F002C0E6F057
:1028880003C0E7F00001DF510008F66F0FEC0BF012
:1028980000C004F001C005F002C006F003C007F054
:1028A800E4C000F0E5C001F0E6C002F0E7C003F0C4
:1028B80051EC0AF000C0F0F001C0F1F002C0F2F0F3
:1028C80003C0F3F0F0C0E4F0F1C0E5F0F2C0E6F0C8
:1028D800F3C0E7F0F0C000F0F1C001F0F2C002F080
:1028E800F3C003F04DEC09F01EEC09F000C004F051
:1028F80001C005F002C006F003C007F0F0C000F008
:10290800F1C001F0F2C002F0F3C003F04DEC0AF0A0
:10291800000E046E000E056E000E066E7E0E076E2B
:10292800AEEC0EF0000ED8B0010E006E00521AE0A8
:10293800E4C000F0E5C001F0E6C002F0E7C003F033
:10294800000E046E000E056E000E066E7E0E076EFB
:1029580036EC03F000C0E4F001C0E5F002C0E6F098
:1029680003C0E7F0E4C000F0E5C001F0E6C002F003
:10297800E7C003F04DEC09F00001DF51010F096ECB
:102988000A6A000E0A2209C004F00AC005F0000E07
:102998000ABEFF0E066E076E04360490053606362C
:1029A800073604360490053606360736070E042423
:1029B800F66E490E0520F76E000E0620F86E090027
:1029C800F5CF05F00900F5CF06F00900F5CF07F0BF
:1029D8000900F5CF08F00850035C08E10750025CD5
:1029E80005E10650015C02E10550005C1EE30001B0
:1029F800E4C000F0E5C001F0E6C002F0E7C003F073
:102A0800CD0E046ECC0E056E4C0E066E7B0E076E58
:102A180032EC02F000C0E4F001C0E5F002C0E6F0DC
:102A280003C0E7F0E84BE92B5AD0E4C000F0E5C05A
:102A380001F0E6C002F0E7C003F04DEC09F0DFC09A
:102A480004F0000E056E066E076E04360490053617
:102A58000636073604360490053606360736070E5E
:102A68000424F66E490E0520F76E000E0620F86E57
:102A78000900F5CF05F00900F5CF06F00900F5CFFC
:102A880007F00900F5CF08F00850035C08E107508B
:102A9800025C05E10650015C02E10550005C1FE2A2
:102AA8000001E4C000F0E5C001F0E6C002F0E7C0B4
:102AB80003F0000E046E000E056E200E066E820EE8
:102AC800076E32EC02F000C0E4F001C0E5F002C08D
:102AD800E6F003C0E7F0010EE85F000EE95B0001D5
:102AE800E3A393D0E3B791D0800E000A006E800E66
:102AF800DE19005C02E1DD510A0804E20A0EDD6F0E
:102B0800000EDE6FE4C000F0E5C001F0E6C002F0A0
:102B1800E7C003F04DEC09F000C0EAF001C0EBF0AB
:102B280002C0ECF003C0EDF0EA51EB11EC11ED112D
:102B380042E00A0E046E000E056E066E076EEAC0CD
:102B480000F0EBC001F0ECC002F0EDC003F085EC42
:102B580005F008C000F009C001F00AC002F00BC07F
:102B680003F0000E046E031808E10450021805E192
:102B78000450011802E10050000A1DE1010EDD5F5A
:102B8800000EDE5B0A0E046E000E056E066E076E02
:102B9800EAC000F0EBC001F0ECC002F0EDC003F0B9
:102BA80085EC05F000C0EAF001C0EBF002C0ECF0E3
:102BB80003C0EDF0B9D7800EDE19006E800E005C00
:102BC80002E1DF51DD5D21E2DD51DF5DF66F0FECE3
:102BD8000BF000C004F001C005F002C006F003C00D
:102BE80007F0E4C000F0E5C001F0E6C002F0E7C07D
:102BF80003F051EC0AF000C0E4F001C0E5F002C0B7
:102C0800E6F003C0E7F0DDC0DFF0050E0001DD25CA
:102C1800006E000EDE21016E0050E05F0150E15BA6
:102C2800DD51DE1103E1E3B701D004D0010EE05F0E
:102C3800000EE15B030EE215006EE3C001F0000E2A
:102C480001160050011004E0010EE05F000EE15B88
:102C5800E2A539D0E2A312D0E2A103D02D0ED56FA0
:102C680002D02B0ED56FCEC0E1FFCFC0E2FFD5C09A
:102C7800E6FFCE4BCF2BEE4BEF2B0CD0E2A10AD0C8
:102C8800CEC0E1FFCFC0E2FF200EE66ECE4BCF2BC9
:102C9800EE4BEF2B800E006E800EE119005C02E116
:102CA800E05100080FE2CEC0E1FFCFC0E2FF300ED6
:102CB800E66ECE4BCF2BEE4BEF2B010EE05F000EF6
:102CC800E15BE8D73AD0E2B718D0800E006E800EEC
:102CD800E119005C02E1E05100080FE2CEC0E1FF1B
:102CE800CFC0E2FF200EE66ECE4BCF2BEE4BEF2B84
:102CF800010EE05F000EE15BE8D7E2A312D0E2A18B
:102D080003D02D0ED66F02D02B0ED66FCEC0E1FFAA
:102D1800CFC0E2FFD6C0E6FFCE4BCF2BEE4BEF2B5A
:102D28000CD0E2A10AD0CEC0E1FFCFC0E2FF200E56
:102D3800E66ECE4BCF2BEE4BEF2BE4C000F0E5C098
:102D480001F0E6C002F0E7C003F04DEC09F000C066
:102D5800EAF001C0EBF002C0ECF003C0EDF0DFC018
:102D680000F0000E016E026E036E00360090013610
:102D78000236033600360090013602360336070E57
:102D88000024F66E490E0120F76E000E0220F86E40
:102D98000900F5CF04F00900F5CF05F00900F5CFDB
:102DA80006F00900F5CF07F0EAC000F0EBC001F02B
:102DB800ECC002F0EDC003F085EC05F0300E002603
:102DC800CEC0E1FFCFC0E2FF00C0E6FFCE4BCF2B65
:102DD800EE4BEF2BDD51DE1103E1E3B701D06FD0ED
:102DE800CEC0E1FFCFC0E2FF2E0EE66ECE4BCF2B5A
:102DF800EE4BEF2BDF51DD5F000EDE5BDF534DE066
:102E0800DF07DFC000F0000E016E026E036E0036B1
:102E1800009001360236033600360090013602363D
:102E28000336070E0024F66E490E0120F76E000ED9
:102E38000220F86E0900F5CF04F00900F5CF05F07F
:102E48000900F5CF06F00900F5CF07F0EAC000F059
:102E5800EBC001F0ECC002F0EDC003F085EC05F02A
:102E68000A0E046E000E056E066E076E85EC05F000
:102E780008C000F009C001F00AC002F00BC003F05E
:102E8800300E0026CEC0E1FFCFC0E2FF00C0E6FF53
:102E9800CE4BCF2BEE4BEF2BB1D7DD51DE110FE030
:102EA800CEC0E1FFCFC0E2FF300EE66ECE4BCF2B97
:102EB800EE4BEF2B010EDD5F000EDE5BEED7E2ABD3
:102EC8000BD0CEC0E1FFCFC0E2FF450EE66ECE4B81
:102ED800CF2BEE4BEF2B0AD0CEC0E1FFCFC0E2FFE5
:102EE800650EE66ECE4BCF2BEE4BEF2B800EE9191D
:102EF800006E800E005C02E1000EE85D11E2E85110
:102F08000008E86FE951000EE957CEC0E1FFCFC0D5
:102F1800E2FF2D0EE66ECE4BCF2BEE4BEF2B0AD0F9
:102F2800CEC0E1FFCFC0E2FF2B0EE66ECE4BCF2B1B
:102F3800EE4BEF2B0A0E046E000E056EE8C000F093
:102F4800E9C001F0E9EC09F0300E0026CEC0E1FF3F
:102F5800CFC0E2FF00C0E6FF0001CE4BCF2BEE4B07
:102F6800EF2B0A0E046E000E056EE8C000F0E9C0F3
:102F780001F0E9EC09F008C000F009C001F0300EDA
:102F88000026CEC0E1FFCFC0E2FF00C0E6FF00018F
:102F9800CE4BCF2BEE4BEF2BE2A71AD0800E006E54
:102FA800800EE119005C02E1E051000811E2CEC098
:102FB800E1FFCFC0E2FF200EE66ECE4BCF2BEE4BEB
:102FC800EF2B010EE05F000EE15BE051E111EFE154
:102FD80011EF10F0E3A3F3D0800EE919006E800E14
:102FE800005C02E1000EE85D0AE2010EE85D006E99
:102FF800000EE959016E0050DD5F0150DE5BE4C050
:1030080000F0E5C001F0E6C002F0E7C003F04DECC7
:1030180009F000C0EAF001C0EBF002C0ECF003C018
:10302800EDF0010EDF6FDF510A0A34E0DFC000F077
:10303800000E016E026E036E0036009001360236F5
:10304800033600360090013602360336070E002498
:10305800F66E490E0120F76E000E0220F86E090088
:10306800F5CF01F00900F5CF02F00900F5CF03F024
:103078000900F5CF04F00450ED5D08E10350EC5D64
:1030880005E10250EB5D02E10150EA5D01E202D088
:10309800DF2BC9D7DF51DD5DF46F000EDE59F56F08
:1030A800F4C0DDF0F5C0DEF0EAC000F0EBC001F0DE
:1030B800ECC002F0EDC003F01EEC09F000C004F013
:1030C80001C005F002C006F003C007F0E4C000F03C
:1030D800E5C001F0E6C002F0E7C003F04DEC0AF0ED
:1030E80000C0F0F001C0F1F002C0F2F003C0F3F04C
:1030F800F4C0F6F00FEC0BF0F0C004F0F1C005F0EE
:10310800F2C006F0F3C007F032EC02F0000E046ED5
:10311800000E056E000E066E7E0E076E36EC03F08E
:103128004DEC09F000C0EAF001C0EBF002C0ECF091
:1031380003C0EDF0DD51DE1142E00A0E046E000E10
:10314800056E066E076EEAC000F0EBC001F0ECC039
:1031580002F0EDC003F085EC05F008C000F009C0EE
:1031680001F00AC002F00BC003F0000E046E031851
:1031780008E10450021805E10450011802E100506A
:10318800000A1DE10A0E046E000E056E066E076E3B
:10319800EAC000F0EBC001F0ECC002F0EDC003F0B3
:1031A80085EC05F000C0EAF001C0EBF002C0ECF0DD
:1031B80003C0EDF0010EDD5F000EDE5BBBD7800EB5
:1031C800006E800EDE19005C02E1DD510C0816E38A
:1031D800DDC0F6F0FBEC06F0E4C004F0E5C005F055
:1031E800E6C006F0E7C007F036EC03F000C0E4F0F4
:1031F80001C0E5F002C0E6F003C0E7F0E4C000F06B
:10320800E5C001F0E6C002F0E7C003F0046A056A11
:10321800066A076A21EC0FF0000ED8A4010E006EB2
:103228000052D8B477D0E4C000F0E5C001F0E6C0A1
:1032380002F0E7C003F04DEC09F0000E046E03182D
:1032480008E10450021805E10450011802E1005099
:10325800000A60E1800E006E800EE919005C02E150
:10326800E851010857E2E8C0F6F00FEC0BF000C097
:1032780004F001C005F002C006F003C007F0E4C086
:1032880000F0E5C001F0E6C002F0E7C003F051EC41
:103298000AF05F0E046E700E056E090E066E810E42
:1032A800076EAEEC0EF0010ED8B0000E006E0052A4
:1032B80006E0090E0001E85F000EE95B05D0000199
:1032C800080EE85F000EE95BE8C0F6F00FEC0BF0C3
:1032D80000C004F001C005F002C006F003C007F00A
:1032E800E4C000F0E5C001F0E6C002F0E7C003F07A
:1032F80051EC0AF04DEC09F000C0EAF001C0EBF027
:1033080002C0ECF003C0EDF00001E46BE56BE66B86
:10331800E76B38D0E4C000F0E5C001F0E6C002F089
:10332800E7C003F04DEC09F000C0EAF001C0EBF093
:1033380002C0ECF003C0EDF0EAC000F0EBC001F011
:10334800ECC002F0EDC003F01EEC09F000C004F080
:1033580001C005F002C006F003C007F0E4C000F0A9
:10336800E5C001F0E6C002F0E7C003F04DEC0AF05A
:1033780000C0E4F001C0E5F002C0E6F003C0E7F0E9
:10338800E86BE96B010EDF6FDF510A0A34E0DFC03A
:1033980000F0000E016E026E036E003600900136DA
:1033A8000236033600360090013602360336070E21
:1033B8000024F66E490E0120F76E000E0220F86E0A
:1033C8000900F5CF01F00900F5CF02F00900F5CFAB
:1033D80003F00900F5CF04F00450ED5D08E1035057
:1033E800EC5D05E10250EB5D02E10150EA5D01E2AE
:1033F80002D0DF2BC9D7DF51DD25006E000EDE219C
:10340800016EE8510026E95101220050E05F0150A9
:10341800E15BE3B704D0DD51DE1101E104D0010E18
:10342800E05F000EE15B030EE215006EE3C001F001
:10343800000E01160050011004E0010EE05F000EBE
:10344800E15BE2A539D0E2A312D0E2A103D02D0EB0
:10345800D76F02D02B0ED76FCEC0E1FFCFC0E2FFEF
:10346800D7C0E6FFCE4BCF2BEE4BEF2B0CD0E2A113
:103478000AD0CEC0E1FFCFC0E2FF200EE66ECE4BF1
:10348800CF2BEE4BEF2B800E006E800EE119005C07
:1034980002E1E05100080FE2CEC0E1FFCFC0E2FF39
:1034A800300EE66ECE4BCF2BEE4BEF2B010EE05FCE
:1034B800000EE15BE8D73AD0E2B718D0800E006E74
:1034C800800EE119005C02E1E05100080FE2CEC075
:1034D800E1FFCFC0E2FF200EE66ECE4BCF2BEE4BC6
:1034E800EF2B010EE05F000EE15BE8D7E2A312D0FC
:1034F800E2A103D02D0ED86F02D02B0ED86FCEC00C
:10350800E1FFCFC0E2FFD8C0E6FFCE4BCF2BEE4B9A
:10351800EF2B0CD0E2A10AD0CEC0E1FFCFC0E2FF72
:10352800200EE66ECE4BCF2BEE4BEF2BDFC000F01C
:10353800DF0700524CE0DFC000F0000E016E026EA3
:10354800036E0036009001360236033600360090CE
:10355800013602360336070E0024F66E490E0120A6
:10356800F76E000E0220F86E0900F5CF04F009008E
:10357800F5CF05F00900F5CF06F00900F5CF07F003
:10358800EAC000F0EBC001F0ECC002F0EDC003F0BF
:1035980085EC05F00A0E046E000E056E066E076EC9
:1035A80085EC05F008C000F009C001F00AC002F07F
:1035B8000BC003F0300E0026CEC0E1FFCFC0E2FF03
:1035C80000C0E6FFCE4BCF2BEE4BEF2BAFD7800ED4
:1035D800006E800EE919005C02E1E85100080FE274
:1035E800CEC0E1FFCFC0E2FF300EE66ECE4BCF2B50
:1035F800EE4BEF2B010EE85F000EE95BE8D7800E7B
:10360800000A006E800EDE19005C02E1DD51080838
:1036180003E2080EDF6F02D0DDC0DFF0DF51DD5FAF
:10362800000EDE5BDF5303E1E3B701D00AD0CEC062
:10363800E1FFCFC0E2FF2E0EE66ECE4BCF2BEE4B56
:10364800EF2BDFC0F6F00FEC0BF0E4C004F0E5C0A0
:1036580005F0E6C006F0E7C007F032EC02F015EC22
:103668000EF000C0EAF001C0EBF002C0ECF003C0BD
:10367800EDF0DF534DE0DF07DFC000F0000E016E14
:10368800026E036E003600900136023603360036AD
:103698000090013602360336070E0024F66E490EF6
:1036A8000120F76E000E0220F86E0900F5CF04F035
:1036B8000900F5CF05F00900F5CF06F00900F5CFB0
:1036C80007F0EAC000F0EBC001F0ECC002F0EDC07A
:1036D80003F085EC05F00A0E046E000E056E066E0A
:1036E800076E85EC05F008C000F009C001F00AC0BB
:1036F80002F00BC003F0300E0026CEC0E1FFCFC0B1
:10370800E2FF00C0E6FFCE4BCF2BEE4BEF2BB1D73D
:10371800DD51DE110FE0CEC0E1FFCFC0E2FF300E79
:10372800E66ECE4BCF2BEE4BEF2B010EDD5F000E7E
:10373800DE5BEED7E2A71AD0800E006E800EE1198C
:10374800005C02E1E051000811E2CEC0E1FFCFC009
:10375800E2FF200EE66ECE4BCF2BEE4BEF2B010E89
:10376800E05F000EE15BE051E111EFE111EF10F0D5
:10377800C00EE215016EE3C002F0000E0216000E44
:10378800021802E1000E0118D8A480D0E2A927D0BF
:10379800D3C0E9FFD4C0EAFFEECF00F0EECF01F0CE
:1037A80000C0E9FF01C0EAFFEECFEAF0EECFEBF090
:1037B800EECFECF0EECFEDF0D3C0E9FFD4C0EAFFD6
:1037C800040EEE24006E000EEE20016ED3C0E1FF61
:1037D800D4C0E2FF00C0E6FF01C0E6FF2FD0D3C08F
:1037E800E9FFD4C0EAFFEECF00F0EECF01F000C051
:1037F800E9FF01C0EAFFEECF00F0EECF01F0000EC6
:1038080001BEFF0E026E036E00C0EAF001C0EBF0CD
:1038180002C0ECF003C0EDF0D3C0E9FFD4C0EAFF6A
:10382800020EEE24006E000EEE20016ED3C0E1FF02
:10383800D4C0E2FF00C0E6FF01C0E6FF800EED192C
:10384800006E800E005C08E1000EEC5D05E1000EE4
:10385800EB5D02E1000EEA5D18E2030EE213000ED2
:10386800E313006A016A026A036AEA51005EEB51D7
:10387800015AEC51025AED51035A00C0EAF001C056
:10388800EBF002C0ECF003C0EDF04ED0E2A927D077
:10389800D3C0E9FFD4C0EAFFEECF00F0EECF01F0CD
:1038A80000C0E9FF01C0EAFFEECFEAF0EECFEBF08F
:1038B800EECFECF0EECFEDF0D3C0E9FFD4C0EAFFD5
:1038C800040EEE24006E000EEE20016ED3C0E1FF60
:1038D800D4C0E2FF00C0E6FF01C0E6FF25D0D3C098
:1038E800E9FFD4C0EAFFEECF00F0EECF01F000C050
:1038F800E9FF01C0EAFFEECFEAF0EECFEBF0000EF1
:10390800EC6FED6FD3C0E9FFD4C0EAFF020EEE24DE
:10391800006E000EEE20016ED3C0E1FFD4C0E2FFBE
:1039280000C0E6FF01C0E6FF000EDE1902E1000E4E
:10393800DD190FE1000E006EED1908E10050EC19D9
:1039480005E10050EB1902E1EA51000A02E1DD4B02
:10395800DE2BC00EE215006E00C005F0AED0010EE1
:10396800DF6FDF510A0A34E0DFC000F0000E016E9D
:10397800026E036E003600900136023603360036BA
:103988000090013602360336070E0024F66E490E03
:103998000120F76E000E0220F86E0900F5CF01F045
:1039A8000900F5CF02F00900F5CF03F00900F5CFC3
:1039B80004F00450ED5D08E10350EC5D05E10250B0
:1039C800EB5D02E10150EA5D01E202D0DF2BC9D7CD
:1039D80082D0010EDF6FDF51080A34E0DFC000F04B
:1039E800000E016E026E036E00360090013602363C
:1039F8000336003600900136023603362F0E0024B7
:103A0800F66E490E0120F76E000E0220F86E0900CE
:103A1800F5CF01F00900F5CF02F00900F5CF03F06A
:103A28000900F5CF04F00450ED5D08E10350EC5DAA
:103A380005E10250EB5D02E10150EA5D01E202D0CE
:103A4800DF2BC9D748D0010EDF6FDF510C0A34E0F5
:103A5800DFC000F0000E016E026E036E00360090AB
:103A68000136023603360036009001360236033638
:103A7800D70E0024F66E480E0120F76E000E0220C5
:103A8800F86E0900F5CF01F00900F5CF02F0090042
:103A9800F5CF03F00900F5CF04F00450ED5D08E11F
:103AA8000350EC5D05E10250EB5D02E10150EA5D77
:103AB80001E202D0DF2BC9D70ED00550000AD8B4D6
:103AC8004ED70550C00AD8B44AD70550800A81E0BD
:103AD8000550400AB8E0800E006E800EDE19005CCA
:103AE80002E1DD51DF5D03E2DDC0DFF00DD0800EC5
:103AF800DE19006E800E005C02E1DF51DD5D04E23C
:103B0800DFC0DDF0000EDE6FE051E1110EE0030EC4
:103B1800E215006EE3C001F0000E0116005001101E
:103B280004E0010EE05F000EE15B800EDE19006E1E
:103B3800800EE119005C02E1E051DD5D05E2DD5136
:103B4800E05FDE51E15B02D0E06BE16BC40EE21591
:103B5800016EE351080B026E0250080A02E1400EA2
:103B6800011808E1E051E11104E0010EE05F000EE8
:103B7800E15B1CD0C00EE215016EE351080B026E2A
:103B88000250080A02E1800E011810E1800E006E52
:103B9800800EE119005C02E1E051020805E2020E24
:103BA800E05F000EE15B02D0E06BE16BE2A55DD067
:103BB800E2A312D0E2A103D02D0ED96F02D02B0EB2
:103BC800D96FCEC0E1FFCFC0E2FFD9C0E6FFCE4B30
:103BD800CF2BEE4BEF2B34D0E2A10BD0CEC0E1FFC0
:103BE800CFC0E2FF200EE66ECE4BCF2BEE4BEF2B75
:103BF80027D0C00EE215016EE351080B026E025089
:103C0800080A02E1800E01181BE1CEC0E1FFCFC017
:103C1800E2FF300EE66ECE4BCF2BEE4BEF2BE2AB36
:103C280003D0580EDA6F02D0780EDA6FCEC0E1FFFB
:103C3800CFC0E2FFDAC0E6FFCE4BCF2BEE4BEF2B27
:103C4800E051E11111E0CEC0E1FFCFC0E2FF300E3C
:103C5800E66ECE4BCF2BEE4BEF2B010EE05F000E46
:103C6800E15BE051E111EFE174D0E051E11113E0C3
:103C7800E2B711D0CEC0E1FFCFC0E2FF200EE66E62
:103C8800CE4BCF2BEE4BEF2B010EE05F000EE15B2E
:103C9800E051E111EFE1E2A312D0E2A103D02D0E31
:103CA800DB6F02D02B0EDB6FCEC0E1FFCFC0E2FF8F
:103CB800DBC0E6FFCE4BCF2BEE4BEF2B0CD0E2A1B7
:103CC8000AD0CEC0E1FFCFC0E2FF200EE66ECE4B99
:103CD800CF2BEE4BEF2BC00EE215016EE351080B14
:103CE800026E0250080A02E1400E01180BE1CEC034
:103CF800E1FFCFC0E2FF300EE66ECE4BCF2BEE4B8E
:103D0800EF2B27D0C00EE215016EE351080B026EAF
:103D18000250080A02E1800E01181BE1CEC0E1FF43
:103D2800CFC0E2FF300EE66ECE4BCF2BEE4BEF2B23
:103D3800E2AB03D0580EDC6F02D0780EDC6FCEC039
:103D4800E1FFCFC0E2FFDCC0E6FFCE4BCF2BEE4B4E
:103D5800EF2B800E006E800EDE19005C02E1DD5153
:103D6800DF5D0BE2CEC0E1FFCFC0E2FF300EE66EB2
:103D7800CE4BCF2BEE4BEF2BECD7DDC000F0DEC0E7
:103D880001F0010EDD5F000EDE5B00500110D8B4BB
:103D98002AD1C00EE215006E00C0F0F00AD1DDC0D5
:103DA80000F0DEC001F0000EDEBFFF0E026E036EF3
:103DB8000036009001360236033600360090013690
:103DC80002360336070E0024F66E490E0120F76E00
:103DD800000E0220F86E0900F5CF04F00900F5CFB7
:103DE80005F00900F5CF06F00900F5CF07F0EAC0A5
:103DF80000F0EBC001F0ECC002F0EDC003F085EC80
:103E080005F00A0E046E000E056E066E076E85EC50
:103E180005F008C000F009C001F00AC002F00BC0AC
:103E280003F0300E0024DF6FD3D0E2AB45D0DDC005
:103E380000F0DEC001F0000EDEBFFF0E026E036E62
:103E480000360090013602360336003600900136FF
:103E5800023603362F0E0024F66E490E0120F76E47
:103E6800000E0220F86E0900F5CF04F00900F5CF26
:103E780005F00900F5CF06F00900F5CF07F0EAC014
:103E880000F0EBC001F0ECC002F0EDC003F085ECEF
:103E980005F00F0E0016000E011602160316600E2E
:103EA8000024F66E490E0120F76E000E0220F86E0F
:103EB8000900F5CFDFF044D0DDC000F0DEC001F02E
:103EC800000EDEBFFF0E026E036E00360090013654
:103ED80002360336003600900136023603362F0EBE
:103EE8000024F66E490E0120F76E000E0220F86ECF
:103EF8000900F5CF04F00900F5CF05F00900F5CF6A
:103F080006F00900F5CF07F0EAC000F0EBC001F0B9
:103F1800ECC002F0EDC003F085EC05F00F0E0016C2
:103F2800000E0116021603164F0E0024F66E490EF7
:103F38000120F76E000E0220F86E0900F5CFDFF0C1
:103F480047D0DDC000F0DEC001F0000EDEBFFF0E7E
:103F5800026E036E003600900136023603360036D4
:103F68000090013602360336D70E0024F66E480E4E
:103F78000120F76E000E0220F86E0900F5CF04F05C
:103F88000900F5CF05F00900F5CF06F00900F5CFD7
:103F980007F0EAC000F0EBC001F0ECC002F0EDC0A1
:103FA80003F085EC05F0070E0014DF6F300EDF27F5
:103FB8000FD0F051000AD8B4F2D6F051C00AD8B4E4
:103FC800EED6F051800AD8B430D7F051400AB9E0A3
:103FD800CEC0E1FFCFC0E2FFDFC0E6FFCE4BCF2B64
:103FE800EE4BEF2BCAD6E2A71AD0800E006E800ED9
:103FF800E119005C02E1E051000811E2CEC0E1FFE6
:10400800CFC0E2FF200EE66ECE4BCF2BEE4BEF2B50
:10401800010EE05F000EE15BE051E111EFE111EF0D
:0C40280010F0EEC000F0EFC001F012003C
:10403400010E0001D36F20D0CF05006E0050800F19
:10404400F66FA6EC08F024D0CF05006E0050C00F28
:10405400F66FA6EC08F01CD0CF05006E0050940F4C
:10406400F66FA6EC08F014D0CF05006E0050D40F04
:10407400F66FA6EC08F00CD0CE51010ADDE0CE516B
:10408400020AE2E0CE51030AE7E0CE51040AECE072
:10409400F00ED015D16FD0C0D2F0D237D291D23732
:1040A400D291D237D291D237D291F00ED217C9EC35
:1040B40001F03EEC00F04E0E0001FB6F68EC01F0E5
:1040C4003EEC00F00001D351D111FB6FFB85FB875F
:1040D40068EC01F03EEC00F0C70E0D6E0D2EFED71D
:1040E400000000000001D351D111FB6FFB8768EC85
:1040F40001F03EEC00F0020E0C6E8D0E0D6E0D2ED6
:10410400FED70C2EFCD7000000000001D351D211C1
:10411400FB6FFB85FB8768EC01F03EEC00F0C70EFB
:104124000D6E0D2EFED7000000000001D351D211F8
:10413400FB6FFB8768EC01F03EEC00F030EC02F022
:02414400120067
:10414600C60E0001CC6F000ECD6FC1C0CEF0C2C04E
:10415600CFF0C3C0D0F0C4C0D1F0C5C0D2F0CC0EF1
:10416600D36F000ED46F0CEC10F000C0CAF001C083
:10417600CBF00050C125E16E0150C221E26EE66A25
:0A418600CAC000F0CBC001F0120027
:10419000010E0001C46FF00EC115C26FC1C0C3F0A3
:1041A000C337C391C337C391C337C391C337C391D7
:1041B000F00EC317C9EC01F03EEC00F04E0E00010A
:1041C000FB6F68EC01F03EEC00F00001C451C2113D
:1041D000FB6FFB85FB8768EC01F03EEC00F0C70E3F
:1041E0000D6E0D2EFED7000000000001C451C2115B
:1041F000FB6FFB8768EC01F03EEC00F0020E0C6EEA
:104200008D0E0D6E0D2EFED70C2EFCD7000000007B
:104210000001C451C311FB6FFB85FB8768EC01F003
:104220003EEC00F0C70E0D6E0D2EFED70000000014
:104230000001C451C311FB6FFB8768EC01F03EEC39
:0842400000F030EC02F0120066
:104248007CEC08F0550E0001F66F0FEC09F0C36B1B
:10425800080EC35D0CE2C351C125E96E000EC221F0
:10426800EA6EEECFF6F00FEC09F0C32BF1D7440E4F
:10427800F66F0FEC09F025D0060E0B6EB90E0C6E1A
:10428800E90E0D6E0D2EFED70C2EFCD70B2EFAD78D
:104298000000000017D00D2EFED70C2EFCD70B2ED9
:1042A800FAD710D00D2EFED70C2EFCD70B2EFAD72E
:1042B800000008D00D2EFED70C2EFCD70B2EFAD7F7
:1042C80001D0DAD77CEC08F0550EF66F0FEC09F048
:1042D800C36B080EC35D0CE2C351C125E96E000E25
:1042E800C221EA6EEECFF6F00FEC09F0C32BF1D73E
:1042F800BE0EF66F0FEC09F038EC0FF000C0C4F0FA
:10430800000EC56F38EC0FF000C003F0000E046E0D
:1043180003C001F0006AC4510012C551011200C067
:10432800C4F001C0C5F04AEC0FF0000E046E000E98
:10433800056E000E066E7B0E076E32EC02F0120060
:104348007C0E0001B46F000EB56F000EB66F000E44
:10435800B76F920EB06F030EB16F000EB26F000E02
:10436800B36FFF0EAC6FFF0EAD6F000EAE6F000E99
:10437800AF6FFF0E8B6FFF0E8C6FFF0E8D6FFF0EF2
:104388008E6FD00E876F020E886FFB0E896F000E3E
:104398008A6F600E836F040E846F000E856F000EA7
:1043A800866F939093928A908A9293809382C79E05
:0843B800C79C380EC66E12000E
:1043C000C3C0E9FFC4C0EAFFEE5210E0C1C0CEF0A6
:1043D000C2C0CFF0C3C0E9FFC4C0EAFFEECFD0F047
:0E43E00029DE0001C22BC34BC42BEAD712000A
:1043EE000001C16BC9EC01F03EEC00F04E0E000175
:1043FE00FB6F68EC01F03EEC00F02F0E0C6EBF0E62
:10440E000D6E0D2EFED70C2EFCD700000000300EC8
:10441E000001C111FB6FFB85FB8768EC01F03EECE0
:10442E0000F0C70E0D6E0D2EFED700000000300EF0
:10443E000001C111FB6FFB8768EC01F03EEC00F050
:10444E00100E0C6E940E0D6E0D2EFED70C2EFCD78C
:10445E000000300E0001C111FB6FFB85FB8768EC7D
:10446E0001F03EEC00F0C70E0D6E0D2EFED70000D3
:10447E000000300E0001C111FB6FFB8768EC01F0EC
:10448E003EEC00F0100E0C6E940E0D6E0D2EFED73F
:10449E000C2EFCD70000300E0001C111FB6FFB8506
:1044AE00FB8768EC01F03EEC00F0C70E0D6E0D2E92
:1044BE00FED700000000300E0001C111FB6FFB871C
:1044CE0068EC01F03EEC00F0100E0C6E940E0D6ECA
:1044DE000D2EFED70C2EFCD70000200E0001C111B0
:1044EE00FB6FFB85FB8768EC01F03EEC00F0C70E1E
:1044FE000D6E0D2EFED700000000200E0001C11122
:10450E00FB6FFB8768EC01F03EEC00F030EC02F044
:10451E00100E0C6E940E0D6E0D2EFED70C2EFCD7BB
:10452E000000280E0001F66FA6EC08F0060EF66FDE
:10453E00A6EC08F00C0EF66FA6EC08F0010EF66F66
:06454E00A6EC08F01200CB
:1045540004D01F0E0001C16F01D0FBD700017CEC19
:1045640008F0CC0EF66F0FEC09F04E0EF66F0FEC60
:1045740009F0F66B0FEC09F0F66B0FEC09F0C1C013
:08458400F6F00FEC09F0120043
:10458C000900F5CFE6FF0006FBE10106F9E1120098
:10459C000001C26B6A6B696B686BCE6B5FEC0FF0E2
:1045AC00005237E0C16B080EC15D14E27B0EE16E68
:1045BC00000EE26EC151E126D8B0E22A730EE96E0C
:1045CC00000EEA6EC151E926D8B0EA2AEECFE6FF1A
:1045DC00C12BE9D7C22BCE6B5FEC0FF0005219E068
:1045EC00C16B080EC15D14E26B0EE16E000EE26E43
:1045FC00C151E126D8B0E22A730EE96E000EEA6EC4
:10460C00C151E926D8B0EA2AEECFE6FFC12BE9D793
:08461C00C22BC2C000F0120025
:10462400C2EC24F00F015B6B5C6B928A780EC86E4F
:1046340089DEDBDE010EC16F010EC26F2E0EC36F69
:10464400000EC46FBBDE020E0001C16F010EC26F0B
:10465400220EC36F000EC46FB1DE9EDF00C0C0F037
:104664000050000A18E1010EF66FA6EC08F0010EE6
:10467400C16F010EC26F150EC36F000EC46F9EDEB4
:10468400020E0001C16F010EC26F550EC36F000E02
:10469400C46F94DEFFD75CDFC051010A25E1010E2F
:1046A400F66FA6EC08F0010EC16F010EC26F450E45
:1046B400C36F000EC46F82DE020E0001C16F010ED3
:1046C400C26F390EC36F000EC46F78DE3D0E0B6EE1
:1046D400E10E0C6E3F0E0D6E0D2EFED70C2EFCD788
:1046E4000B2EFAD700000000010E0001C05D0EE39E
:1046F4007B0EC16F000EC26FA5DD00C0B8F001C013
:10470400B9F002C0BAF003C0BBF004D0B86BB96B07
:10471400BA6BBB6BB8C0A8F0B9C0A9F0BAC0AAF014
:10472400BBC0ABF0C051020A0EE16B0EC16F000EAC
:10473400C26F88DD00C0BCF001C0BDF002C0BEF095
:1047440003C0BFF004D0BC6BBD6BBE6BBF6BBCC001
:10475400A4F0BDC0A5F0BEC0A6F0BFC0A7F0010E76
:10476400F66FA6EC08F0930EC16F000EC26F710EC7
:10477400C36F490EC46F000EC56FA8C0C6F0A9C0B0
:10478400C7F0AAC0C8F0ABC0C9F0DBDC010EC16F32
:10479400010EC26F930EC36F000EC46F0FDEDF0EE7
:1047A4000001C16FF3DC430E0001C16FEFDC930E17
:1047B4000001C16F000EC26F7A0EC36F490EC46F41
:1047C400000EC56FA4C0C6F0A5C0C7F0A6C0C8F04F
:1047D400A7C0C9F0B6DC020EC16F010EC26F930E02
:1047E400C36F000EC46FEADDDF0E0001C16FCEDCC3
:1047F400430E0001C16FCADC3D0E0B6EE10E0C6E60
:104804003F0E0D6E0D2EFED70C2EFCD70B2EFAD7B5
:084814000000000069D7FFD786
:1049840010EE15F0530E006E010E016E1C0EF66E45
:0E499400480EF76E000EF86EC6EC22F0120010
:0D481C004552524F3A204E656E68756D0092
:0C48290053656E736F7265732E2E2E00A7
:0B48350050726F637572616E646F005B
:0C484000456E636F6E747261646F21003E
:10484C004170656E617320312053656E736F720019
:08485C0053656E736F722100B9
:07486400286E756C6C290041
:04486B000000000049
:10486F000000007FCDCC4C7B0AD723786F120375E5
:10487F0017B75171ACC5276EBD37066B95BF56671D
:10488F0077CC2B645F700961FFE65B5D08E53C3C0C
:04489F006042221B36
:1048A3000000007F000020820000488500007A8815
:1048B30000401C8C0050438F0024749280961896FD
:1048C30020BC3E99286B6E9CF90215A0EC782DC193
:0448D300CAF249E2FA
:1048D7000100000008000000400000000002000086
:1048E700001000000080000000000400000020000D
:1048F7000000000100000008000000400000000068
:10490700010000000A00000064000000E803000046
:1049170010270000A086010040420F0080969800F3
:0849270000E1F50500CA9A3B0E
:10492F000100000010000000000100000010000056
:10493F000000010000001000000000010000001046
:10494F0030313233343536373839616263646566F6
:01495F000057
:1049600030313233343536373839414243444546A5
:014970000046
:0949710053313A25332E31660062
:09497A0053323A25332E31660058
:020000040030CA
:0E00000023025F3CFFC181FF0FC00FE00F40E5
:00000001FF
